:100000000C9438000C9418030C9455000C94550073
:100010000C9455000C9455000C9455000C9455000C
:100020000C9455000C9455000C9455000C945500FC
:100030000C9455000C9455000C9455000C945500EC
:100040000C9455000C9455000C9455000C945500DC
:100050000C9455000C9455000C9455000C945500CC
:100060000C9455000C9455000C9455000C945500BC
:1000700011241FBECFEFD4E0DEBFCDBF11E0A0E062
:10008000B1E0E4E5F1E102C005900D92AA37B107B5
:10009000D9F72BE0AAE7B1E001C01D92AB3EB20751
:1000A000E1F70E9422050C94A8080C940000CF935D
:1000B000DF93EC0188E090E00E940D07FC01D18302
:1000C000C083138212821582148217821682DF91F6
:1000D000CF910895EF92FF920F931F93CF93DF93E9
:1000E00087E091E00E94570090938B0180938A01F2
:1000F00081E191E00E94570090938F0180938E01DF
:1001000086E191E00E945700EC0181E291E00E94BB
:1001100057008C0182E391E00E9457007C0184E447
:1001200091E00E945700E0918A01F0918B01D58304
:10013000C483FB83EA839D838C831F830E83D80152
:100140001396FC93EE9312971796FC92EE921697E5
:10015000D7011396FC93EE931297FC01D383C283CD
:1001600080918E0190918F0197838683D0938D012A
:10017000C0938C01DF91CF911F910F91FF90EF9071
:1001800008951F93CF93DF93E0918C01F0918D013F
:100190000280F381E02DC481D58160E080E00E947F
:1001A0008F01E0918C01F0918D010280F381E02DAF
:1001B00040E068E0808191810E94460260E081E039
:1001C0000E948F0110E140E068E083E591E00E9429
:1001D00046021150C1F712E060E0812F0E948F01AA
:1001E00080918C0190918D01C817D90739F441E0B5
:1001F00065E0888199810E94460206C040E065E082
:10020000888199810E9446020E80DF81C02D20974F
:1002100011F01F5FE1CFDF91CF911F9108950397F8
:10022000B9F4E0918C01F0918D018681978100975E
:1002300051F40280F381E02D8481958190938D01AA
:1002400080938C0124C090938D0180938C011FC0FA
:10025000A0918C01B0918D011296ED91FC911397B4
:100260000480F581E02DAE17BF0741F401C0FC0109
:10027000868197810097D9F706C0FC018681978116
:10028000A817B907D1F7F0938D01E0938C010E9474
:10029000C1000895E0918C01F0918D01A0918E0133
:1002A000B0918F01EA17FB0739F482819381909313
:1002B0008D0180938C010EC084819581892B51F032
:1002C0001396FC93EE9312978481958190938D0100
:1002D00080938C010E94A7010E94C100089540E014
:1002E00050E160E070E00E941805089540E052E19E
:1002F00060E070E00E94180508958770806B0E948E
:100300006F010895CF93C82F8F700E946F018C2FBB
:1003100082958F7080610E946F01CF910895CF9375
:10032000C62F0E947D018C2F0E948201CF910895DB
:10033000CF93DF9360E00E948F01C0E8D0E080E0BF
:100340000E9476012197D9F7DF91CF910895CF933D
:10035000C0E08C2F0E949801CF5FC830D1F7CF91B9
:1003600008958EEA0E946F0181EA0E946F018AED72
:100370000E946F0182E10E946F0188EC0E946F0170
:1003800088EA0E946F018FE30E946F0185ED0E9451
:100390006F0180E80E946F0181E80E946F0180E593
:1003A0000E946F0189ED0E946F0181E20E946F013E
:1003B00080E20E946F0182E00E946F018BED0E943B
:1003C0006F0180E30E946F018DEA0E946F0180E05F
:1003D0000E946F0184EA0E946F0186EA0E946F0109
:1003E0008FEA0E946F010E94A7010895AF92BF9209
:1003F000CF92DF92EF92FF920F931F93CF93DF93F1
:10040000FC0180818052C62ED12C1C141D049CF549
:10041000F42EE62EA82EB12C8501000F111F000F1F
:10042000111F0A0D1B1D0A5F194FAA0CBB1CAA0C39
:10043000BB1CAA0CBB1CC0E0D0E0FF2031F0F801CF
:10044000849180950E94760110C0F8E0EF1209C0F7
:10045000FE01EA0DFB1DEE56FE4F84910E947601CF
:1004600004C0F80184910E94760121960F5F1F4F0E
:10047000CC15DD0511F7DF91CF911F910F91FF9002
:10048000EF90DF90CF90BF90AF900895EF92FF92E2
:100490000F931F93CF93DF931F92CDB7DEB7FC016D
:1004A00020812983222389F0E42EF62E8C010F5F10
:1004B0001F4F4E2D6F2DCE0101960E94F601F801BF
:1004C00091918F0199839111F4CF0F90DF91CF918A
:1004D0001F910F91FF90EF900895FF920F931F933C
:1004E000CF93DF938C0160E080E00E948F01C0E039
:1004F000D0E0F12CF801EC0FFD1F84910E947601F1
:1005000021969E012F773327232B29F4F39460E063
:100510008F2D0E948F01C11584E0D80759F7DF9114
:10052000CF911F910F91FF90089560E080E00E94AD
:100530008F0140E065E085E591E00E94460260E0C1
:1005400081E00E948F0140E065E08EE591E00E942D
:10055000460260E082E00E948F0140E065E088E6AC
:1005600091E00E94460260E083E00E948F0140E03B
:1005700065E080E791E00E94460260E084E00E942E
:100580008F0140E065E087E091E00E944602089517
:10059000CF9386E00E94EE04C82F87E00E94EE040D
:1005A000282F6C2F70E0822F90E0CF910895CF928A
:1005B000DF92EF92FF92CF93DF930E94C8026B010C
:1005C0007C01B701FF0C880B990B0E94140620E0F8
:1005D00030E04FE753E40E946A0520E030E048EC49
:1005E00052E40E94A0060E94DC05C62F660FDD0BB8
:1005F000B601DD0C880B990B0E94140620E030E058
:100600004FE753E40E946A0520E030E048EC52E4F2
:100610000E94A0060E94DC05262F622F220F770B76
:10062000CE01DF91CF91FF90EF90DF90CF900895B2
:100630001F920F920FB60F9211248F939F9381E018
:1006400090E090939101809390019F918F910F90F2
:100650000FBE0F901F9018958BB780648BBF85B726
:10066000826085BF7894089584E00E94EE0490E053
:10067000909389018093880185E00E94EE0490E0C8
:10068000909387018093860108950E942C030E9415
:10069000340386EF9FEF90938501809384019093BC
:1006A0008301809382018AE090E09093810180939E
:1006B000800190937F0180937E0184E090E090938D
:1006C0007D0180937C0190937B0180937A01089552
:1006D000CF93DF9384E00E94EE0490E020918801A4
:1006E00030918901821B930B9C012C5F3F4F293075
:1006F000310518F0D82FC92F02C0D0E0C0E085E046
:100700000E94EE0490E02091860130918701821BC7
:10071000930B9C012C5F3F4F2930310518F0382F87
:10072000292F02C030E020E06D2F7C2F832F922FE5
:10073000DF91CF910895161617063CF421E030E0C2
:1007400030937D0120937C010DC077232CF410920F
:100750007D0110927C0106C024E030E030937D01E1
:1007600020937C01181619063CF482E090E09093E7
:100770007B0180937A01089599233CF483E090E013
:1007800090937B0180937A01089584E090E09093A8
:100790007B0180937A010895FC0120917C013091C6
:1007A0007D012130310569F420918401309185016A
:1007B000261737070CF49B013093850120938401A1
:1007C0000EC0232B61F420918001309181016217CA
:1007D00073070CF49B0130938101209380012091D9
:1007E0007A0130917B012230310569F42091820138
:1007F000309183012E173F070CF49C013093830145
:100800002093820108952330310561F420917E0107
:1008100030917F01E217F3070CF49C0130937F01C4
:1008200020937E0108958F929F92AF92BF92CF92B4
:10083000DF92EF92FF920F931F93CF93DF930E946B
:1008400068036B017C01EB0187010E949B03C701D8
:10085000B6010E94CC0380917C0190917D01813092
:10086000910511F5B601DD0C880B990B0E94140659
:100870004B015C018091840190918501BC01990F2D
:10088000880B990B0E9414069B01AC01C501B401B1
:100890000E946A0520E030E048EC52E40E94A00685
:1008A0000E94DC05EB0128C0892B31F5B601DD0C77
:1008B000880B990B0E9414064B015C01809180010A
:1008C0009091810199231CF4919581959109BC0126
:1008D000990F880B990B0E9414069B01AC01C5016E
:1008E000B4010E946A0520E030E048EC52E40E9426
:1008F000A0060E94DC05EB0180917A0190917B01BA
:100900008230910511F5B701FF0C880B990B0E94FD
:1009100014066B017C018091820190918301BC01DE
:10092000990F880B990B0E9414069B01AC01C7011B
:10093000B6010E946A0520E030E048EC52E40E94D3
:10094000A0060E94DC058B0128C0039731F5B70192
:10095000FF0C880B990B0E9414066B017C0180919F
:100960007E0190917F0199231CF4919581959109C5
:10097000BC01990F880B990B0E9414069B01AC01D6
:10098000C701B6010E946A0520E030E048EC52E45D
:100990000E94A0060E94DC058B01BE01C801DF9108
:1009A000CF911F910F91FF90EF90DF90CF90BF906C
:1009B000AF909F908F90089580917C0190917D01E0
:1009C000089580917A0190917B01089586B3869570
:1009D000869591E08927817090E00895E0E0F4E148
:1009E00080838FE097E20197F1F700C000008081DB
:1009F00008955D9BFECF8CB980E090E008955F9BE9
:100A0000FECF8CB190E0089590BD89B988E18AB994
:100A10008EE880BD6FEF74E089EF94E00E943A08A1
:100A2000089585B7806885BF80B7806280BF0895CC
:100A3000FA01E60FF71F80830895860F971FFC01C8
:100A4000808108958FE190E00E9404050E941105C5
:100A50000E94B1018FEF9FEB0197F1F700C00000FA
:100A60000E946A000E94450381EE97E00E946D0299
:100A70000E949502FF24F394C0E0D0E0E12CC12C49
:100A8000D12C0E9413040E94E1048C01049771F0A0
:100A9000CB30D1055CF0FF2021F00E94A7010E941D
:100AA000C100C8010E940F01FE2CE6018091900157
:100AB00090919101892B31F00E944A01D0929101CD
:100AC000C092900121968FEF9FE50197F1F700C04A
:100AD0000000D7CF0E947E050C9466060E945F0638
:100AE00058F00E94580640F029F45F3F29F00C941A
:100AF0004F0651110C949A060C9455060E947706E5
:100B000068F39923B1F3552391F3951B550BBB273C
:100B1000AA2762177307840738F09F5F5F4F220F81
:100B2000331F441FAA1FA9F335D00E2E3AF0E0E878
:100B300032D091505040E695001CCAF72BD0FE2FC2
:100B400029D0660F771F881FBB1F26173707480756
:100B5000AB07B0E809F0BB0B802DBF01FF2793580E
:100B60005F4F3AF09E3F510578F00C944F060C947D
:100B70009A065F3FE4F3983ED4F3869577956795A0
:100B8000B795F7959F5FC9F7880F911D9695879543
:100B900097F90895E1E0660F771F881FBB1F621762
:100BA00073078407BA0720F0621B730B840BBA0B20
:100BB000EE1F88F7E09508950E94E3056894B1114F
:100BC0000C949A0608950E947F0688F09F5798F02B
:100BD000B92F9927B751B0F0E1F0660F771F881F42
:100BE000991F1AF0BA95C9F714C0B13091F00E945C
:100BF0009906B1E008950C949906672F782F8827FD
:100C0000B85F39F0B93FCCF3869577956795B39582
:100C1000D9F73EF490958095709561957F4F8F4FF1
:100C20009F4F0895E89409C097FB3EF490958095F6
:100C3000709561957F4F8F4F9F4F9923A9F0F92FA2
:100C400096E9BB279395F695879577956795B79520
:100C5000F111F8CFFAF4BB0F11F460FF1BC06F5F06
:100C60007F4F8F4F9F4F16C0882311F096E911C018
:100C7000772321F09EE8872F762F05C0662371F039
:100C800096E8862F70E060E02AF09A95660F771F4D
:100C9000881FDAF7880F9695879597F9089597F941
:100CA0009F6780E870E060E008959FEF80EC089512
:100CB00000240A941616170618060906089500243B
:100CC0000A9412161306140605060895092E0394B5
:100CD000000C11F4882352F0BB0F40F4BF2B11F429
:100CE00060FF04C06F5F7F4F8F4F9F4F089557FD88
:100CF0009058440F551F59F05F3F71F04795880F8A
:100D000097FB991F61F09F3F79F087950895121620
:100D100013061406551FF2CF4695F1DF08C01616CC
:100D200017061806991FF1CF86957105610508947D
:100D30000895E894BB2766277727CB0197F9089594
:100D40000E94B3060C9466060E94580638F00E9472
:100D50005F0620F0952311F00C944F060C94550675
:100D600011240C949A060E94770670F3959FC1F3A4
:100D7000950F50E0551F629FF001729FBB27F00D49
:100D8000B11D639FAA27F00DB11DAA1F649F66279E
:100D9000B00DA11D661F829F2227B00DA11D621FED
:100DA000739FB00DA11D621F839FA00D611D221FA7
:100DB000749F3327A00D611D231F849F600D211D8B
:100DC000822F762F6A2F11249F5750409AF0F1F00E
:100DD00088234AF0EE0FFF1FBB1F661F771F881F77
:100DE00091505040A9F79E3F510580F00C944F065A
:100DF0000C949A065F3FE4F3983ED4F3869577957A
:100E00006795B795F795E7959F5FC1F7FE2B880F1C
:100E1000911D9695879597F90895CF93DF9382302A
:100E2000910510F482E090E0E091E30BF091E40B87
:100E300020E030E0C0E0D0E0309711F140815181F6
:100E400048175907C0F04817590761F48281938108
:100E5000209719F09B838A832BC09093E40B809397
:100E6000E30B26C02115310519F04217530718F47A
:100E70009A01BE01DF01EF010280F381E02DDCCF9A
:100E80002115310509F1281B390B2430310590F467
:100E900012968D919C9113976115710521F0FB01BC
:100EA0009383828304C09093E40B8093E30BFD0152
:100EB000329644C0FD01E20FF31F819391932250BB
:100EC00031092D933C933AC02091E10B3091E20B14
:100ED000232B41F420910201309103013093E20B66
:100EE0002093E10B20910001309101012115310582
:100EF00041F42DB73EB74091040150910501241BE8
:100F0000350BE091E10BF091E20BE217F307A0F44F
:100F10002E1B3F0B2817390778F0AC014E5F5F4F4F
:100F20002417350748F04E0F5F1F5093E20B409394
:100F3000E10B8193919302C0E0E0F0E0CF01DF91FB
:100F4000CF9108950F931F93CF93DF93009709F4E8
:100F50008CC0FC013297138212820091E30B109136
:100F6000E40B0115110581F420813181820F931F5B
:100F70002091E10B3091E20B2817390779F5F093B6
:100F8000E20BE093E10B71C0D80140E050E0AE17F6
:100F9000BF0750F412962D913C911397AD01211586
:100FA000310509F1D901F3CF9D01DA0133832283A1
:100FB00060817181860F971F8217930769F4EC0196
:100FC00028813981260F371F2E5F3F4F31832083C1
:100FD0008A819B8193838283452B29F4F093E40BD0
:100FE000E093E30B42C01396FC93EE931297ED014E
:100FF000499159919E01240F351FE217F30771F4AF
:1010000080819181840F951F029611969C938E93F7
:101010008281938113969C938E931297E0E0F0E087
:10102000D80112968D919C911397009719F0F801B1
:101030008C01F6CF8D919C9198012E5F3F4F820FCE
:10104000931F2091E10B3091E20B2817390769F4C7
:10105000309729F41092E40B1092E30B02C0138234
:1010600012821093E20B0093E10BDF91CF911F915D
:101070000F9108950F931F93CF93DF93009731F44F
:101080006115710519F480E090E03AC08B01EC0124
:101090006EE070E081E090E00E948508FC01892B01
:1010A00091F380E883830115110571F0138702879E
:1010B00081E883838091E50B9091E60B892B21F4E5
:1010C000F093E60BE093E50B2097C9F0D187C0873A
:1010D0008381826083838091E70B9091E80B892B59
:1010E00071F4F093E80BE093E70B8091E90B90919A
:1010F000EA0B892B21F4F093EA0BE093E90BCF0183
:10110000DF91CF911F910F9108950F931F93CF936C
:10111000DF93869F8001879F100D969F100D1124ED
:10112000C8010E940D07EC01009729F0A80160E0BA
:1011300070E00E94A108CE01DF91CF911F910F9125
:101140000895DC0101C06D9341505040E0F70895CF
:04115000F894FFCF41
:101154000000EB0B2000054D61696E204D656E7536
:10116400004261636B004869676873636F726573FB
:1011740000506C6179204D616E75616C2047616D22
:101184006500506C6179204175746F6E6F6D6F7579
:10119400736C7900416C6C2054696D6520486967F3
:1011A4006873002D0057656C636F6D652100536390
:1011B400726F6C6C207570006F7220646F776E00B4
:0A11C400746F20656E746572000000
:00000001FF
